:020000041000EA
:1000000000B5324B212058609868022188439860DF
:10001000D860186158612E4B002199600221596106
:100020000121F02299502B49196001219960352056
:1000300000F044F80222904214D00621196600F024
:1000400034F8196E01211966002018661A6600F04E
:100050002CF8196E196E196E052000F02FF8012189
:100060000842F9D1002199601B49196000215960AB
:100070001A491B48016001219960EB211966A021F2
:10008000196600F012F800219960164914480160C1
:100090000121996001BC002800D000471248134993
:1000A000086003C880F30888084703B5996A0420EC
:1000B0000142FBD001200142F8D103BD02B5186610
:1000C0001866FFF7F2FF186E186E02BD00000240BE
:1000D000000000180000070000035F00212200005C
:1000E000F4000018222000A00001001008ED00E03C
:1000F00000000000000000000000000074B24E7A12
:1001000000200420F7010010C3010010C5010010F9
:10011000C1010010C1010010C1010010C101001097
:10012000C1010010C1010010C1010010C701001081
:10013000C1010010C1010010C9010010CB01001065
:10014000CD010010CD010010CD010010CD01001037
:10015000CD010010CD010010CD010010CD01001027
:10016000CD010010CD010010CD010010CD01001017
:10017000CD010010CD010010CD010010CD01001007
:10018000CD010010CD010010CD010010CD010010F7
:10019000CD010010CD010010CD010010CD010010E7
:1001A000CD010010CD010010CD010010CD010010D7
:1001B000CD010010CD010010CD010010CD010010C7
:1001C00000BE00BE00BE00BE00BE00BE00F04BF888
:1001D000103800BEF2EB8871F48700101888001008
:1001E0003402001090A31AE700202149086006C8D5
:1001F00081F3088810471F48006800282FD10DA4FC
:100200000ECC002902D000F012F8F9E71A491B4A77
:10021000002000E001C19142FCD1194988471949E9
:1002200088471949884700BEFDE701C901C29A42C3
:10023000FBD3704718880010C000002090020020F7
:10024000E88900100000042000000420E889001064
:1002500000100420001004200000000070470B482C
:1002600006F078FE0047EFF30580C0B2704700004B
:1002700008ED00E0000000D09002002058070020A8
:1002800029670010D129001015680010575600008A
:1002900006005250ABB360538087001006005250E6
:1002A000861C030290870010060052505422A29D23
:1002B000A487001005005250DE65F468E88900103C
:1002C000F8B5C0460448054B10B5834203D0044B33
:1002D000002B00D0984710BD900200209002002013
:1002E0000000000006480749091A8910CB0F591869
:1002F00010B5491003D0044B002B00D0984710BD17
:1003000090020020900200200000000010B5074C71
:100310002378002B09D1FFF7D5FF054B002B02D026
:10032000044800E000BF0123237010BD90030020AB
:1003300000000000187F0010054B10B5002B03D003
:100340000449054800E000BFFFF7CCFF10BDC046E0
:100350000000000094030020187F0010AF23104A13
:100360001B0112889A420CD90E4A13780133DBB272
:100370001370032B0BD0D02380221B0692015A61ED
:1003800004E0D02380221B0692019A617047D0239B
:1003900080211B068901996100231370F6E7C0468E
:1003A000380500208F04002010B507F0E1FB102075
:1003B00005F0A0F9122005F09DF9162005F09AF934
:1003C0000B2005F097F90C2005F094F90D2005F0AD
:1003D00091F90A2005F08EF9032005F08BF90E2023
:1003E00005F088F9022005F085F9112005F082F961
:1003F0000F2005F07FF9D02380221B0652025A629B
:100400008022D2025A628022D2035A6280221201D2
:100410005A62802292015A62802252015A628022DC
:10042000D2005A6208229A628022D2015A621E4980
:100430001E4807F009FC0321062005F015F90321E9
:10044000072005F011F900220121062005F024F90A
:1004500000220121072005F01FF907F0EBFC0F2116
:100460001A2005F001F9002200211A2005F014F9E4
:1004700000211A2005F02AF90F211D2005F0F4F8BB
:10048000002200211D2005F007F91D20002105F0A4
:100490001DF9074B1A68C0239B015340E022D2018B
:1004A0001340044A136010BDA08601006C020020B6
:1004B00000C0044000D00440062812D8324B80000F
:1004C0001B589F463F22314B19780A4018210A4396
:1004D0001A704922197A0A406D211A721A7C8A43CD
:1004E0001A7470472722294B19780A401A7049223A
:1004F000197A0A4061211A721A7C8A430C210A4334
:100500001A74EEE72722214B19780A401A70492203
:10051000197A0A400D211A721A7C8A4360210A4313
:100520001A74DEE71821194B1A788A431100402209
:100530005242CCE72722154B19780A401A704F22F5
:10054000197A0A4006210A43C6E727220F4B197879
:100550000A401A707922197A0A4030210A43BBE70F
:1005600027220A4B19780A4036211A701A7A8A43D0
:100570001100802252420A436C211A721A7C8A436B
:1005800001210A431A74ACE7187F0010C40400204C
:100590000A00F8B5DE4657464E4645460723023068
:1005A000303AC0B2D2B2E0B5C4080340092A1BD821
:1005B000D700BF1AFF2208251600ED1AAA402E41C7
:1005C00052B2E00076B29346002B19D18E4B8F4980
:1005D0000130C0187918072207F07AF93CBC904620
:1005E0009946A246AB46F8BD0A00413A052A00D812
:1005F000E9E0552900D903E185488A0082589746E9
:10060000421C0C2C39D9804C8049A55C9446CA5DAB
:1006100035409A4015436246A554821C9446C91938
:1006200065464A78655D9A4035402A43654662557D
:100630008A78C71C9A40E55D35402A43E255CA785E
:10064000071D9A40E55D35402A43E2550A79471D6A
:100650009A40E55D35402A43E2554A79871D9A4024
:10066000E55D073035402A43E2558A799A40130008
:10067000225C16401E432654B0E79146634A624C02
:100680009446D25D90464A46A15C42469A4031402B
:1006900011434A46A1540922914681444A46A15C2D
:1006A0005A46114042462A4111434A46A154390054
:1006B000821C904661444A7894464246A75C624652
:1006C0009A40374017434246A7540A229046804436
:1006D0004246A75C5A46174062462A4117434246A3
:1006E000A754C21C90468A7894464246A75C62464C
:1006F0009A40374017434246A7540B229046804405
:100700004246A75C5A46174062462A411743424672
:10071000A754021D9046CA7894464246A75C62469A
:100720009A40374017434246A7540C2290468044D3
:100730004246A75C5A46174062462A411743424642
:10074000A754421D90460A7994464246A75C6246E9
:100750009A40374017434246A7540D2290468044A2
:100760004246A75C5A46174062462A411743424612
:10077000A754821D90464A7994464246A75C624639
:100780009A40374017434246A7540E229046804471
:100790004246A75C5A46174062462A4117434246E2
:1007A000A7548F79C21DA15C94463A009A406346D3
:1007B0000E4016435A462F41E6540F30235C1A4030
:1007C0003A4322540AE73739C9B2CF007F1AF1E61B
:1007D000A827EFE67727EDE67027EBE6C427E9E6E2
:1007E0007E27E7E6BD27E5E6B627E3E6CB27E1E689
:1007F0009327DFE68527DDE6AF27DBE68C27D9E602
:10080000CF007F1AD6E6C046C40400203885001009
:10081000347F0010F0B5C64600B5AB4D82B06846D7
:1008200004F0D2FD07226946280007F051F80322A0
:100830001020A64C18266378617A13400343637036
:100840003F2399436172A17811403143A170A17A8D
:100850009943A172E17811400143E170E17A994333
:10086000E1722179114001432171217B9943217368
:100870006179114001436171617B99436173A17991
:1008800011400143A171A17B9943A173E1790A4011
:1008900038210A43E271E27B29789A43E2737F228E
:1008A0001140297069780A406A700722E978A878AF
:1008B0000A40EA702A79184013402B711F236A7985
:1008C000A87013406B7104F0CDFC814E30706878D5
:1008D00004F0C8FC7F4B1870287904F0C3FC7E4BF1
:1008E0001870687904F0BEFC7C4B1870A87904F08D
:1008F000B9FC7B4B367818707A4B1B78002B0CD0E8
:1009000023790C2E54D9784A0C3EF6B21670012287
:10091000934302221343237101E0734B1E700A219B
:10092000300006F071FB714F3030C3B23B703000C5
:100930000A21984606F068FB0F26303179706B78F3
:1009400028781A09334030323033BA70FB7006F021
:10095000DFFE06F03DFF664B002206F094FB06F03A
:10096000A7FB644B1870644B1B78002B39D0EA78D6
:100970002178207A237C012A00D178E0022A21D034
:1009800027252940032A00D189E0042A00D190E0DC
:10099000052A00D177E04925284021702072062AD7
:1009A00000D18BE00D22934360221343237414E0A3
:1009B0000C2E60D04C4A167002229343012213433E
:1009C0002371ACE716329143583A11434922104043
:1009D0002432934321702072237402B004BC9046E9
:1009E000F0BD41460020FFF7D3FD79780520FFF7E1
:1009F000CFFD3021637AE27A33406372637C324008
:100A0000B3436374A37A0A4333400B43A372A37CBA
:100A1000E272B343A374E37C627BB343E374237B4E
:100A2000324033402373237D0A43B3432375637DF0
:100A30006273B3436375A37B0D2033400B43A373F1
:100A4000A37DB343A375E37B3340E373E37DB343FB
:100A5000E375B978FFF79CFDF9781220FFF798FD50
:100A6000EA782178207A237C012A00D086E73E327A
:100A700011401822A9E70122934302221343237154
:100A8000194B1E784BE731329043B63A1043EC32A3
:100A90009343012213432170207223749DE74C324B
:100AA00010400622217010436D229343207223745C
:100AB00093E77532104021703022F4E75B329343A4
:100AC0000C221343237488E73C050020C404002053
:100AD00065040020430500204D050020C0040020CF
:100AE000A00400206D0400204505002048050020DA
:100AF0000000F83F6304002095040020F0B5DE46B6
:100B000057464E464546E0B5F14C8DB02378022B52
:100B100000D9F2E1012B00D152E2022B06D1ED4CBB
:100B20002378002B00D1C8E201232370EA4B0A216D
:100B30001B789A46E94B50465B785BB2994606F0C3
:100B400063FA02004B4630321A4052B2D0B2010072
:100B50003039C9B2092900D9F2E1CB005B1A03256B
:100B6000DF4CE04AD05C627881002A400A4352B2EE
:100B700090463F22617A80119143014349B20A9124
:100B8000D849A0788C466344597828408E00304379
:100B900040B28346A07A89119043014349B209913A
:100BA000E178987829408600314349B20891E17A8A
:100BB00080119143084341B207912179D8782940A7
:100BC0008600314349B20691217B8011914308434D
:100BD00041B20591677919792F4088000743607BFE
:100BE00089119043014349B20491A67959792E4065
:100BF0008800064370B20390A07B891190430143A3
:100C000049B200919979E37950461D408B001D430C
:100C10006BB20193E37B891193430B435BB20A21CF
:100C2000029306F0F1F90B004A4630331340DBB271
:100C30001A00303AD2B27FB2092A00D9B9E1D10004
:100C4000891AA84B7F225B5C5D469C46D8014346CF
:100C500013401843A34B60709846414448781540B0
:100C6000C3012B43A3708B781740DD01A846089D74
:100C700040101540A94645464E463543E570CD78AF
:100C80005B10A846ED01A946069D1540AA464D46B3
:100C90005646354325710D79039EA946ED012F4334
:100CA00067714F791640FD0189792E43019D8B466E
:100CB0001540CA01154301216246E5710A9D521093
:100CC0008D4315430F221540AA46657CA6719543B6
:100CD0006DB20B95099D7F108D4305433020154063
:100CE00005430A95A57C95436DB20995079D8D43F3
:100CF0001D434346154005430895059D5B108D43F4
:100D00002B4313409846237DE67C93435BB20793C5
:100D10004B46049D5B108D432B43134003430693C6
:100D2000637D022593435BB29946009B96438B43B8
:100D30001F43174007430597A37D76B293435BB2E9
:100D40000493029B8B435946491019431140029169
:100D5000E37D0A2193435BB20393634B18785F4BA7
:100D600000905D57019506F04FF93030284040B2B1
:100D7000C1B20B00303BDBB2092B00D900E1DA0035
:100D8000D21A5046574B089D9B5CD90108430B99DA
:100D90005B101943534B60729C46624457780A9B20
:100DA000F8010343A372099B7F108B4691783B4364
:100DB0001F00CB0149100E434146B246D6781D4371
:100DC000F3011943079B761033431E0013790698ED
:100DD0002173D901084349465B101943894651796B
:100DE000059B6073C8010343A373049B49100B4325
:100DF000E57295799846029BE9010B43E373039BE7
:100E00006D102B430A210098029306F0FDF80B00A9
:100E1000019A30331340DBB21A00303AD2B2092AB9
:100E200000D9A6E0D3009A1A2E4B5946985C0301CC
:100E30009C460F23654619400D43617E001199437E
:100E40000143617627491F408C46624450781E401A
:100E500001010F43A7745746A17E00119943014336
:100E600090781F40A17601013943E174E17E0011C1
:100E700099430143D078E17601010E4326754E4631
:100E8000217F00119943014310791E402177010110
:100E9000314346466175617F0011994301435079A2
:100EA0001E40617701013143A175A17F0011994373
:100EB00001436574A177029D91791D400A01154394
:100EC000E27F09119A4313000B43E575E3770DE0C8
:100ED00097040020690400204505002088010020B7
:100EE000C404002038850010430500200DB03CBC30
:100EF00090469946A246AB46F0BD032B71D01A1F0F
:100F0000012A00D8E0E0062B00D167E2072B00D1D0
:100F100035E3082B00D142E1092B01D100F04CFC54
:100F200000230121C94A23701370C94A1370C94AAA
:100F30001370C94A1170C94A1370C94A1370D5E7B2
:100F40000300413B052B47D92E2A01D100F021FD9A
:100F500000DD29E2202A01D100F022FCBD232D2A48
:100F600000D1FCE5002A01D100F01AFCC3001B1AD5
:100F7000F5E52F2B00D9EAE3BA499A008A5897463B
:100F80000B00413B052B22D92E2801D100F0FEFC9D
:100F900000DD17E2202801D100F005FCBD222D283C
:100FA00000D1EEE6002801D100F0FDFBCA00521A84
:100FB000E7E62F2B00D9CEE3AB499A008A58974633
:100FC000AA4D2A78002A00D1E3E12B70AEE537392B
:100FD000C9B2CA00521AD4E63738C0B2C3001B1ACD
:100FE000BDE564220124A24EA24D30782B78424305
:100FF0009B18A14A0A211380A04B1C7006F004F82C
:1010000001003031C9B20020FFF7C2FA30780A215E
:1010100005F0FAFF3031C9B20520FFF7B9FA287898
:101020000A2105F0F1FF964E3030F17801400A2098
:10103000FFF7AEFA28780A2105F0E6FF0B00F178F9
:10104000303319400F20FFF7A3FA21207F218D4B69
:101050005A7E22405A761A5C8A431A549A7E01308C
:1010600022409A761A5C8A431A54DA7E0130224072
:10107000DA761A5C8A431A541A7F013022401A77B2
:101080001A5C8A431A545A7F013022405A771A5CFC
:101090008A431A549A7F013022409A771A5C8A4315
:1010A0001A54DA7F01302240DA771A5C8A431A54E4
:1010B0001CE7A822B8E6A821C3E5734B587804F0D2
:1010C000D1F8724B18702FE56421694A12785143A8
:1010D000684A1278521868490A80042B00D14AE203
:1010E00001226B4B1A706B4D0A21287805F08CFF9A
:1010F000634C3030217901400020FFF749FA28780D
:101100000A2105F081FF0B002179303319400520B9
:10111000FFF73EFA0F2230205A4B5F4D597A1140AB
:101120005972597C91435974997A11409972997CFA
:1011300091439974D97A1140D972D97C9143D97469
:10114000197B114001431973197D28789143197552
:10115000597B11405973597D91435975997B1140C1
:101160009973997D91439975D97B1140D973D97D34
:101170009143D9750A2105F047FF6179303001406C
:101180000D20FFF705FA28780A2105F03DFF0B0036
:101190006179303319401220FFF7FAF9A6E63F4C87
:1011A0002378002B00D1EDE2012344216C20237031
:1011B000344C023362781A406270A2781A400A43B3
:1011C000A270E2781A4002435420E27022791A4059
:1011D0000243227162791A400A436271A2791A406D
:1011E0000A43A271E27913400B43E3710723A17C08
:1011F000627C9943A174E17C9A439943E17409218B
:10120000627469222173217D637299432175617D26
:10121000A2729943E27262736175A273A27DE37355
:101220009A43A275E27D9A43E2751D4A144B1278E7
:101230001B7A002A00D184E231210E201940FFF7E9
:10124000A7F97F23192201219C4678E04E05002052
:1012500064040020620400209A0400208904002015
:10126000910400208C8000104C8100106804002044
:10127000B0010020A0040020460500206B040020DF
:1012800088010020C40400203C05002066040020E2
:1012900067040020C00400204D0500206C040020DD
:1012A0006D040020092083469B445846255C604617
:1012B0008543584625545046255C0D4025540A2048
:1012C00082469A445046255C6046854350462554E4
:1012D0004846255C0D4025540B20814699444846DC
:1012E000255C60468543484625544046255C0D40B4
:1012F00025540C20804698444046255C6046854332
:10130000404625546046E55D0D40E5550837E55DEE
:101310008543E555A55D0D40A5550836A55D85437A
:10132000A555D81D255C0F330D4025546546E05C5E
:10133000A843E0540832D2B2792A00D1D6E5D508C4
:10134000EB005E1CA05D5F1D0840A055D81D0090FD
:10135000181D8046D81C8146981C9E1D82460C2D67
:10136000A0D9235C0B4023544B464846E35C0B401A
:10137000235443464046E35C0B402354E35D00980E
:101380000B40E355A35D0B40A355235C0B40235456
:10139000D0E7F34B987803F065FF0122F14B2A70F8
:1013A00018702378FFF7B9FB3A2A00D1FEE17023C9
:1013B000482A01D1FFF7D3FB5B332F2A00D0D5E5B4
:1013C000FFF7CDFB3A2800D1F3E17022482800D185
:1013D000D7E45B322F2800D0E8E5D2E40122E24BCB
:1013E000E24C1A700323A078642118408146E0780B
:1013F000A2791840804660781A40494218409446C5
:1014000008435C226070484652421043A070404638
:101410001043E0706046657926791D40154302430C
:10142000A2710F22E7791E401F400E433943E1713C
:10143000617C342091436174A17C63729143A174F7
:10144000E17C23739143E1743021237D65719343E3
:101450002375637DA0729343E07261736375267197
:10146000A173A37DC24D9343A3750023E373E37D72
:1014700027389343E375AB791940FFF789F8BD4BE3
:101480001B78012B00D184E14621AB791220194051
:10149000FFF77EF81C210F2242E0092082469A4481
:1014A0005046255C954325544846255C15402554F7
:1014B0000A20814699444846255C95432554404678
:1014C000255C154025540B20804698444046255CF9
:1014D000954325546046255C154025540C208446D0
:1014E0009C446046255C0F33954325545846E55D82
:1014F0001540E5550837E55D9543E555A55D154073
:10150000A5550836A55D9543A555255C1540255480
:10151000E05C9043E0540831C9B2742900D1E5E49D
:10152000CD08EB005E1CA05D5F1D1040A055D81CCF
:101530008046181D8446D81D8346981C9E1D8146F2
:101540000D2DAAD1235C1340235443464046E35C4F
:101550001340235463466046E35C13402354E35D29
:1015600058461340E355A35D1340A3555B46E35C27
:1015700013402354CFE701227F4B1A70B3E50122B9
:101580007E4B7A4C1A700323A17864261940894651
:10159000E178A2791940884661781A40194076426C
:1015A000944631435C226170494652421143A17016
:1015B00041461143E1706146257960791D4018402C
:1015C000154310430A43A2710F22617C607191435D
:1015D0006174A17C34209143A174E17CE77991434B
:1015E000E17430211F4063722373237D3E43934394
:1015F0002375637D25719343A072E07261736375F7
:10160000E671A173A37D5A4D9343A3750023E37341
:10161000E37D27389343E375EB791940FEF7B8FF74
:10162000574B1B78002B00D19FE14E21EB79122004
:101630001940FEF7ADFF1C210F2243E0092082462E
:101640009A445046255C954325544846255C1540F0
:1016500025540A20814699444846255C95432554E3
:101660004046255C154025540B2080469844404652
:10167000255C954325546046255C154025540C2077
:1016800084469C446046255C0F3395432554584658
:10169000E55D1540E5550837E55D9543E555A55DE4
:1016A0001540A5550836A55D9543A555255C154003
:1016B0002554E05C9043E0540831C9B2742901D14B
:1016C000FFF714FCCD08EB005E1CA05D1F1D104051
:1016D000A055D81D8346981C8146D81CBC469E1D2B
:1016E0005F1D80460D2DA9D14B464846E35C134053
:1016F000235443464046E35C13402354634660460C
:10170000E35C13402354E35D58461340E355A35D67
:101710001340A3555B46E35C13402354CCE7B6214A
:10172000FFF78FFAB622FFF77FFBCB22FFF77CFB98
:10173000BD22FFF779FBCB21FFF783FABD21FFF72D
:1017400080FA32210E201940FEF722FF79E5DA00F7
:10175000D21AFFF769FBD900C91AFFF772FAC0461F
:101760003C0500206504002089040020C4040020FA
:1017700088010020840100206A04002091040020D8
:1017800094040020844B987803F06CFD834B187010
:101790000AE54E21AB7912201940FEF7F9FE79E6F1
:1017A000A823FFF7DCF9A822FFF7EBFA9323FFF752
:1017B000D6F99322FFF7E5FA0122794B03251A7037
:1017C00004239C466346774CA778E6782F402E404A
:1017D0001E431F433C232079A279284018436346C7
:1017E0002A401A4392466246617920712940194382
:1017F000E37961712B401343627899462A40904601
:10180000442252429446424663461A435346A371C9
:101810004B46E3710F23A17C6270627C99439A432B
:1018200002206274A1743222E17CE6709943E17473
:10183000217D637299432175617DA272994361751F
:101840003021E27220736273A770A273A27D564E9C
:101850009A43A275E27DE0739A43E275737A0B3086
:101860001940FEF795FE514B1B78002B00D183E009
:101870004E21737A12201940FEF78AFE0322A379C3
:101880001343A3711C210F2244E00925AA469A4460
:1018900055465046655D954325544846255C1540A0
:1018A00025540A20814699444846255C9543255491
:1018B0004046255C154025540B2080469844404600
:1018C000255C954325546046255C154025540C2025
:1018D00084469C446046255C0F3395432554584606
:1018E000E55D1540E5550837E55D9543E555A55D92
:1018F0001540A5550836A55D9543A555255C1540B1
:101900002554E05C9043E0540831C9B2742901D1F8
:10191000FFF7ECFACD08EB005E1CA05D5F1D1040E8
:10192000A055981C8146D81C8046181D8446D81D99
:1019300083469E1D0D2DA8D14B464D46E35C1340BA
:10194000635543464546E35C13406355634665462D
:10195000E35C13406355E35D1340E355A35D13401F
:10196000A355235C13402354CEE74621EB79122084
:101970001940FEF70DFE5EE64621737A12201940EB
:10198000FEF706FEA379AB43A3717BE7B622FFF710
:10199000F8F9B623FFF7E3F83C05002065040020C2
:1019A00060040020C404002088010020610400209D
:1019B000F0B5DE4657464E464546E0B5CE4C83B0C0
:1019C00023785A1E012A00D808E1DA1E012A30D9EC
:1019D000052B00D14BE2C94EC94D32782B78002A35
:1019E00000D125E2002B00D06FE200230121C54A7F
:1019F00023701370C44A1370C44A1370C44A13701E
:101A0000C44A1170C44A1370C44A1370C44A137094
:101A1000C44A1370C44A1370C44A1370C44A137082
:101A2000C44A137003B03CBC90469946A246AB46EC
:101A3000F0BD032B00D10FE20122BC4B1A70BE4C4B
:101A40000A21207805F0E0FABC4D3030E9780140F9
:101A50000020FEF79DFD20780A2105F0D5FA0B0045
:101A6000E978303319400520FEF792FD0F2330202E
:101A7000B34CB44E627AA17A1A406272627C194009
:101A80009A436274A27C01439A43A274E27CA172DD
:101A90009A43E274227BE17A1A402273227D194034
:101AA0009A432275627D01439A436275A27BE1727B
:101AB0001A400243A273A27D617B9A43A275E27B26
:101AC00019401A40E273E27D01439A43E275617363
:101AD00030780A2105F098FA2979303001400D203C
:101AE000FEF756FD30780A2105F08EFA0B002979B1
:101AF000303319401220FEF74BFD1C210F2242E02B
:101B0000092082469A445046255C95432554484610
:101B1000255C154025540A20814699444846255C99
:101B2000954325544046255C154025540B2080469E
:101B300098444046255C954325546046255C1540F5
:101B400025540C2084469C446046255C0F33954305
:101B500025545846E55D1540E5550837E55D954344
:101B6000E555A55D1540A5550836A55D9543A555D8
:101B7000255C15402554E05C9043E0540831C9B21F
:101B8000742900D14EE7CD08EB005E1CA05D5F1DFF
:101B90001040A055D81D8346181D8446D81C804689
:101BA000981C9E1D81460D2DAAD1235C1340235401
:101BB00043464046E35C1340235463466046E35C7F
:101BC00013402354E35D58461340E355A35D13408F
:101BD000A3555B46E35C13402354CFE7012B00D1B0
:101BE00066E101224F4B1A7003231821544C3C2507
:101BF0006278A0781A400A4362703F22617A1840E6
:101C00009143617224210843A070A07A9043A0728E
:101C1000E07818400843E070E07A9043E072207961
:101C2000184028432071207B444D904320736079F5
:101C3000184008436071607B90436073A07918403E
:101C40000843A071A07B9043A073E07903400B434D
:101C5000E371E37B9343E373284B69781B78002B94
:101C600000D1DFE0312305201940FEF791FC0F235E
:101C70003020A17A627A19400143A172E17A1A40B8
:101C800019400143E172617B62721940627C014339
:101C90009A43617330216274A27C9A43A274E27CFD
:101CA0009A43E274227B1A402273227D9A43227562
:101CB000627D9A436275A27B1A400243A273A27DA1
:101CC0000D209A43A275E27B1A40E273E27D9A43AB
:101CD000E275AB781940FEF75BFC094B1B78002BD3
:101CE00000D1BDE04E21AB7812201940FEF750FC28
:101CF0001C210F226BE0C0469704002087040020BF
:101D0000850400204E050020640400207E0400208D
:101D1000810400209A0400208904002091040020FE
:101D200086040020840400207F0400208204002018
:101D30007D04002090040020800400208801002001
:101D4000C404002083040020092082469A4450469F
:101D5000255C954325544846255C154025540A20AA
:101D6000814699444846255C954325544046255C68
:101D7000154025540B20804698444046255C9543E9
:101D800025546046255C154025540C2084469C440F
:101D90006046255C0F33954325545846E55D154054
:101DA000E5550837E55D9543E555A55D1540A55515
:101DB0000836A55D9543A555255C15402554E05C86
:101DC0009043E0540831C9B2742900D12AE6CD0805
:101DD000EB005E1CA05D1F1D1040A055D81D834662
:101DE000D81C8046981CBC469E1D5F1D81460D2D4B
:101DF000AAD1235C1340235443464046E35C13407E
:101E0000235463466046E35C13402354E35D584625
:101E10001340E355A35D1340A3555B46E35C1340B9
:101E20002354CFE7302305201940FEF7B1FB1EE70E
:101E3000002B00D1D9E53F493F4B09783F4A1B7839
:101E4000127801200091002103F0E8FA3378002B8A
:101E500000D1CAE52B78C5E50122394B1A70EEE5B1
:101E60004621AB7812201940FEF792FB40E7012291
:101E7000344B1A702F4B1978334B1D78187A1A7C13
:101E800001292BD0022935D027242C4003293AD010
:101E9000042910D005293BD0492528401C70187210
:101EA000062941D00D218A4360210A431A74B9E5FD
:101EB000264A137098E67531084030211C7008439B
:101EC0006D218A4318721A74ACE51A4B1A781A4BB2
:101ED00019781A4B187803F033FB86E53F242C4021
:101EE00018252C431C704831084024318A4318724D
:101EF0001A7497E52C00402516318C436D422C4313
:101F00001C703131F0E74C3108401C700621D6E7D7
:101F100031318843B6390843EC318A4301210A4301
:101F20001C7018721A747DE55B318A430C210A43D8
:101F30001A7477E5830100208004002083040020C8
:101F40007F0400207D040020C404002086040020BB
:101F5000F0B5DE4657464E464546E0B5B94BBA4A5F
:101F60001B78934685B01278012B33D0022B00D119
:101F7000E0E2032B00D1FAE0042B00D103E2002AB7
:101F80000BD1022359460B700321B04B1A70B04B92
:101F90001A70B04A53798B43537100230121AE4A22
:101FA0001370AE4A1370A74A1370AD4A1370AD4A4E
:101FB0001370AD4A1170AD4A1370AD4A1370AD4A3B
:101FC0001370AD4A137005B03CBC90469946A246CA
:101FD000AB46F0BD7C26A949B2460B70032303250E
:101FE0009C4C9B46A37856462B409846E378A179B3
:101FF0002B409C46E37929402B409946637827790A
:102000002B4033436370702346465B421E431943A3
:10201000A670A1716646494660792F402840184352
:102020001E431F430B43E37100236071A07C637266
:1020300007339843A0740D20E072E07C617C9843E4
:10204000E0740A209943617408212073207DA172F5
:1020500098432075607D61739843E67027716075C1
:10206000A173A17D9943A1752821E173E17D994375
:10207000E175002A00D171E1012A01D100F067FC6D
:10208000022A01D100F079FC1C210F2242E0092034
:1020900082469A445046255C954325544846255C23
:1020A000154025540A20814699444846255C9543AD
:1020B00025544046255C154025540B208046984405
:1020C0004046255C954325546046255C15402554C3
:1020D0000C2084469C446046255C0F339543255470
:1020E0005846E55D1540E5550837E55D9543E555EE
:1020F000A55D1540A5550836A55D9543A555255CFC
:1021000015402554E05C9043E0540831C9B274296D
:1021100000D158E7CD08EB005E1CA05D5F1D1040AC
:10212000A055981C8146D81C8046D81D8346181D92
:102130009E1D84460D2DAAD14B464846E35C1340B4
:10214000235443464046E35C1340235463466046B1
:10215000E35C13402354E35D58461340E355A35D0D
:102160001340A3555B46E35C13402354CDE7022A9A
:1021700000D112E7012A00D1E4E3002A00D022E7CF
:10218000304B1B78032B00D01DE7304C0A21207800
:1021900004F03AFF01003031C9B20020FEF7F8F92F
:1021A00020780A2104F030FF3031C9B20520FEF753
:1021B000EFF90F233020274C254D627AA17A1A407F
:1021C0006272627C19409A436274A27C01439A4312
:1021D000A274E27CA1729A43E274227BE17A1A40F3
:1021E0002273227D19409A432275627D01439A43EE
:1021F0006275A27BE1721A400243A273A27D617BE9
:102200009A43A275E27B19401A40E273E27D0143D2
:102210009A43E275617328780A2104F0F5FE010003
:102220003031C9B20D20FEF7B3F928780A2104F045
:10223000EBFE3031C9B21220FEF7AAF91C210F22A1
:1022400061E0C04697040020810100207204002054
:1022500075040020C40400204E0500206404002002
:1022600079040020780400209A04002089040020CA
:1022700091040020900400207404002073040020C6
:10228000092082469A445046255C95432554484689
:10229000255C154025540A20814699444846255C12
:1022A000954325544046255C154025540B20804617
:1022B00098444046255C954325546046255C15406E
:1022C00025540C2084469C446046255C0F3395437E
:1022D00025545846E55D1540E5550837E55D9543BD
:1022E000E555A55D1540A5550836A55D9543A55551
:1022F000255C15402554E05C9043E0540831C9B298
:10230000742900D10DE3CD08EB005E1CA05D5F1DBC
:102310001040A055D81D8346181D8446D81C804601
:10232000981C9E1D81460D2DAAD1235C1340235479
:1023300043464046E35C1340235463466046E35CF7
:1023400013402354E35D58461340E355A35D134007
:10235000A3555B46E35C13402354CFE75521F04F70
:102360000D207B785E461940FEF712F950217B78EC
:1023700012201940FEF70CF963791E43A3786671A9
:10238000AB43A37080E6012A00D0F8E5E54B1B784B
:10239000002B00D001E6E449E44C0B70E44B2078BC
:1023A0001A700A2104F030FE01003031C9B2002059
:1023B000FEF7EEF820780A2104F026FE3031C9B28B
:1023C0000520FEF7E5F80F233020DA4CDA4D627A6B
:1023D000A17A1A406272627C19409A436274A27CAC
:1023E00001439A43A274E27CA1729A43E274227B75
:1023F000E17A1A402273227D19409A432275627D48
:1024000001439A436275A27BE1721A400243A273B0
:10241000A27D617B9A43A275E27B19401A40E27368
:10242000E27D01439A43E275617328780A2104F042
:10243000EBFD01003031C9B20D20FEF7A9F8287874
:102440000A2104F0E1FD3031C9B21220FEF7A0F8F4
:102450001C210F2243E00925AA469A4455465046BE
:10246000655D954325544846255C154025540A2052
:10247000814699444846255C954325544046255C51
:10248000154025540B20804698444046255C9543D2
:1024900025546046255C154025540C2084469C44F8
:1024A0006046255C0F33954325545846E55D15403D
:1024B000E5550837E55D9543E555A55D1540A555FE
:1024C0000836A55D9543A555255C15402554E05C6F
:1024D0009043E0540831C9B2742900D173E5CD08A6
:1024E000EB005E1CA05D5F1D1040A055D81C80460F
:1024F000181D8446981C8146D81D83469E1D0D2DAF
:10250000A9D14B464D46E35C1340635543464546CF
:10251000E35C1340635563466546E35C13406355D3
:10252000E35D1340E355A35D1340A355235C1340C3
:102530002354CFE7012A00D1FCE1002A00D042E574
:102540007E4C2378002B00D1E2E0784B0A211878EA
:10255000029304F059FD01003031C9B20022724BE0
:1025600000201A7001232370FEF712F8029B0A2143
:10257000187804F049FD3031C9B20520FEF708F89B
:102580000F2330206B4C6C4D627AE17A1A406272F4
:10259000627C19409A436274A27A01431A40024352
:1025A000A272A27CE1729A43A274E27C617B9A439C
:1025B000E274227B19401A402273227D01439A4320
:1025C0002275627D61739A436275A27B0A211A406B
:1025D0000243A273A27D28789A43A275E27B1A4037
:1025E000E273E27D03959A43E27504F00DFD01006C
:1025F0003031C9B20D20FDF7CBFF28780A2104F055
:1026000003FD3031C9B21220FDF7C2FF1C210F2299
:1026100051E00925A94699444D46655D48469543D4
:10262000A9460500484660554046205C05004046E6
:10263000154025540A20814699444846205C0500EF
:102640004846954325546046205C05006046154089
:1026500025540B20804698444046205C05004046A7
:1026600095432554E05D05000C2084469C4460465B
:102670001540E555275C554697432754A75D981D9F
:102680001740A7551F000D37E65D9643E655265CBB
:10269000164026541E000E36A05D0F339043A05501
:1026A0005046205C10406055E05C9043E054083197
:1026B000C9B2742946D0CB089946DB009D1CA846B8
:1026C000DD1CAC464D465E1CA05D1F1D1040A05594
:1026D000D81D8246981D5E1D01900D2D99D143464F
:1026E0004546E35C1340635563466546E35C13402F
:1026F0006355E35D1340E355A35D1340A355235C8D
:102700001340235453465046E35C13402354CEE712
:10271000064A302113700292094A13701EE7C04620
:10272000880100206E0400204E0500207204002065
:102730006F040020C40400207704002070040020EF
:10274000750400205B461A78964B1B78032B00D14A
:1027500010E5012A00D010E5029D0A21287804F036
:1027600053FC914E3030B17801400020FDF710FF4E
:1027700028780A2104F048FC0B00B1783033194066
:102780000520FDF705FF0F233020627AE17A1A4019
:102790006272627C19409A436274A27A01431A40C1
:1027A0000243A272A27CE1729A43A274E27C617B32
:1027B0009A43E274227B19401A402273227D01431E
:1027C0009A432275627D61739A436275A27B0A21E6
:1027D0001A400243A273A27D9A43A275E27B1A407B
:1027E000E273E27D9A43714BE275187804F00CFCB9
:1027F000F178303001400D20FDF7CAFE6B4B0A2105
:10280000187804F001FC0B00F178303319401220E5
:10281000FDF7BEFE1C210F224FE00925A946994471
:102820004D46655D48469543A946050048466055B6
:102830004046205C05004046154025540A2081464C
:1028400099444846205C0500484695432554604617
:10285000205C05006046154025540B2080469844B6
:102860004046205C0500404695432554E05D050048
:102870000C2084469C4460461540E555275C9743F0
:102880002754A75D50461740A7551F000D37E65D3A
:102890009643E655265C013716402654E65DD81D62
:1028A0009643E655265C0F3316402654E05C904371
:1028B000E0540831C9B274292CD0CB0899464D4652
:1028C000DB005E1CA05D1F1D1040A055981D8246B8
:1028D000D81C8446981C8046D81D5E1D01900D2D85
:1028E0009BD143464546E35C1340635563466546CA
:1028F000E35C13406355E35D55461340E355A35D28
:102900001340A3555346E35C13406355235C1340C7
:102910002354CEE7254B039A1B7813705B461A7835
:102920002BE40023224A1370224A1370224A1370A8
:10293000FFF749FB214B1A70214B224C02931C4B91
:10294000039309E7204B1A70204B0022F3E7442140
:10295000154F0D207B785E461940FDF719FE4E217C
:102960007B7812201940FDF713FEA3781E4363798C
:10297000A670AB436371FFF787FB30210A4E0D2031
:1029800073781940FDF704FE462173781220194030
:10299000FDF7FEFDA378AB43A3706379AB4363718E
:1029A000FFF772FB970400208801002075040020C7
:1029B00077040020760400207004002071040020B9
:1029C00072040020C4040020740400206E0400205F
:1029D000F0B5DE464E4657464546E0B5A5B0FDF794
:1029E000E3FC0222F54E0024F3781343F37003F066
:1029F00029F9FA2218AB0293F14B9200009301944B
:102A0000002303F023F903F01DF91EAB0293ED4BF5
:102A100001940093EC4A002303F018F9EB4B9B461A
:102A2000EB4B1B78012B1BD0EA4B1B78012B00D101
:102A300008E2E94B1B78012B00D10FE2E74B1B7832
:102A4000012B00D116E25B461B78012BE8D1FDF784
:102A5000E1FE00235A461370DD4B1B78012BE3D1B6
:102A600004228021DE4B49001A60DE4A13680B42C3
:102A7000FCD050680004000C4300181804F04EFE0F
:102A8000D94904F03FFE814604F06AFED7498046EA
:102A9000C7B2484604F036FE04F062FE0A2104F094
:102AA00087FA48460D00CCB2D14904F02BFE04F061
:102AB00057FE0A2104F07CFACBB212910A93092F37
:102AC00000D979E24346FF221A40D3009B1AC94A33
:102AD000D25C920052B29146C64A944663445A78F8
:102AE0009979920052B290469A78DF78920052B269
:102AF00094465A79187992008900BF00800052B23A
:102B00004BB27FB240B205920693B3789A46032344
:102B1000514619408A46414652461143F27888464A
:102B2000110019408A4661465246114332798C465B
:102B30001100727919400F431100B279194008430E
:102B4000110019400A00059911430591F179069A7F
:102B500019400A4351B28A467178059A0B4049469A
:102B600019430B007F210B40737043460B40B37039
:102B700063460B40F37053460F4008400A4019402B
:102B800080235B42194337717071B271F171092C66
:102B900000D9D1E1FF21974A0D409446E900954BB9
:102BA000491B5B5C61444A780F799146D0098A7869
:102BB0004D799046D2090D92CA7889799446D20906
:102BC0000E92FA090F92EA09DC0910925B00CA0919
:102BD00092461A003F231A4005924A4652001A4074
:102BE0000892424652001A40099262467F00520003
:102BF0006D0049001A401D401F400B4007951D0005
:102C000094460D9A06977F23717C99430C4361B2D9
:102C10000B91B17C9943084341B20C91F17C9943EB
:102C20000A4352B20D92327D0E999A4311434AB231
:102C30000E92727D0F999A4311434AB20F92B27D60
:102C400010999A4311434AB21092F27D9A43534627
:102C500013435BB211930A9B092B00D91CE1FF219E
:102C6000129B644A1940CB005B1AD25C92469208D0
:102C70000A92604A904643441C795A78A0081390FF
:102C800058799978DF789B79169080081490980885
:102C900015905046800182461793534691460598F9
:102CA0008846184343B205934B4608989B01184346
:102CB00043B20893434609989B01184343B26046C8
:102CC00089081291B908BF013843099343B20698A5
:102CD000A40120439C4643B21698079C80010443FC
:102CE000069363B20793179B92089B011D436DB235
:102CF000059B03277372089B0B9CB372099BBC4313
:102D0000F37263463373069B48207373079BF57316
:102D1000B3730A9B23431C0007231C4004437474B1
:102D2000747EA4461F246546A54375760C9DBD435D
:102D30002A431A400243B274B27E129DA243B27675
:102D40000D9ABA4315432A001A400243F274F27EE8
:102D5000A243F2760E9ABA430A431A4002433275EE
:102D6000327F1399A24332770F9ABA4311430A0074
:102D70001A4002437275727F1499A2437277109AB7
:102D8000BA4311430A001A401043B27F1599A24377
:102D9000B277119AB075BA43114330220B401343F6
:102DA000F375F37F144AA343F377134B08491B7859
:102DB000013BDBB2137000220A701FE0C404002044
:102DC000DD480010CD45001040420F009A0400205D
:102DD0007C040020620400207E040020780400208F
:102DE00000E0044000C004403333533A0000204167
:102DF0000000C8423885001082010020002B00D05E
:102E000012E65A4601331370D02304221B069A623D
:102E1000802292029A62802212029A62012100228A
:102E2000022002F039FC00220121112002F034FCC2
:102E3000002201210F2002F02FFCCF4B1B78012B29
:102E400000D0F6E5CD4A1370FDF758FE0023CA4ABC
:102E50001370CB4B1B78012B00D0EFE5C74A1370E2
:102E6000FEF7A6FD0023C64A1370C64B1B78012B44
:102E700000D0E8E5C14A1370FFF76AF80023C14AA1
:102E800013705B461B78012B00D0C9E5FDF7C2FC2F
:102E900000235A461370DFE53033DBB22E2B00D10E
:102EA00015E12F2B00D144E12D2B00D15DE1DA009B
:102EB000D31AB54AD25C169292080A92B24A904648
:102EC000434418799F788246800813905879B9084E
:102ED00081468008149098795C7880461291800829
:102EE000D978169B159005989B01184340B2059020
:102EF0000898A301184340B208900998BB011843F1
:102F000040B2099060461791179BA2089B01184395
:102F100043B29C4653469F01069B07983B435BB2D6
:102F200006934B469B01184343B2079343469B01CC
:102F30001D4389086DB2DBE63034E4B22E2C00D19B
:102F4000E4E02F2C00D1E7E02D2C00D1CBE08E4B1C
:102F5000E5009C462D1B595D6544AF786B78FA09F6
:102F60000D92EA78CC099446D2090E922A79D809B2
:102F70009146D2090F926A79AD799046D2091092A2
:102F8000EA0992464A003F215B000B4008937B0010
:102F90000B40099363465B000B409C464B465F0029
:102FA00043465B000A400F400B406D0005920697B8
:102FB00007930D400D9A26E63B00113B052B04D8E4
:102FC000073FFFB2FB00DB1B81E53B003033DBB288
:102FD000552B79D86D499A008A5897460023069355
:102FE0000593002000279C46984699468DE53C2392
:102FF0000693383B0593042004279C46984699463F
:1030000083E524232420069305933C279C46984679
:1030100099467AE5182306930C3305932420242738
:103020009C469846994670E52423069305930833F9
:103030009C46083B242034279846994665E544235E
:103040000693059328339C46283B9846002344204A
:103050005427994659E5002306930C3305939C4663
:10306000984600230C20002799464EE50823069336
:10307000059308339C4600239846443308201027C4
:10308000994642E5042306930023A9E70023002084
:10309000069305930C279C469846994635E51023E0
:1030A000069305939C4698466C331020102799464A
:1030B0002BE504230693059320339C469846083B52
:1030C00004201C27994620E5DA00D31AFFE44023A8
:1030D0001D436DB200230021159314931393129393
:1030E00000220A9304E600230793069306339C46C6
:1030F000002500230993089305939A4610930F9394
:103100000E930D93002000241A007CE50023022575
:10311000079306939C46EDE7042307930693043335
:103120009C4609930023089322330593042500232A
:10313000E3E74023059A069F1A4353B20593802381
:103140005B421F437AB20692079A1D431A4300233B
:10315000159314931393013352B2129303330792CE
:103160006DB2012100220A93C2E5402362465B4210
:1031700013435BB29C46ADE7620400206404002068
:103180007E04002078040020388500100C82001096
:10319000F0B557464546DE464E46E0B53C4B93B04B
:1031A0001F789846012F00D17EE03A4B3A4C1B78AD
:1031B0004C2B00D17EE2E11D8C460321220023002E
:1031C000250089462132413361354E466178607A67
:1031D0000E40C701490839436170617C4008CF0146
:1031E00038436072607E4908C701394361741178C1
:1031F0004008C90101436176107A1178C701490876
:1032000039431170117C4008CF0138431072107E91
:103210004908C7013943117419784008C9010143AD
:103220001176187A1978C701490839431970197C41
:103230004008CF0138431872187E4908C701394346
:10324000197429784008C90101431976287A297828
:10325000C7014008287248464908394329706178F7
:10326000013481433143217001320133013564451A
:10327000ABD10E22094B1A70094B063A1E70094B4E
:103280001A7013B03CBC90469946A246AB46F0BDBE
:103290009204002093040020C40400204405002070
:1032A000C1040020360500200025F74BF74C1B8891
:1032B00011AA1380682100950223200004F016FD56
:1032C0000123F34A68212000009704F00FFD0095C8
:1032D0000123F04A6821200004F060FD0123EE4A3A
:1032E00068212000009704F001FDEC4B0095994601
:1032F000682101234A46200004F050FD4B461B780C
:10330000E74C9B099A009B189A009B184A46137039
:10331000292322229A46E35C3F35AB430993A35C01
:10332000032694461A002A2032400492235C23216B
:103330001A00AA430A922B22635C09313340059399
:10334000A35CAB430B932423E35C33400693635CA1
:103350000739AB430C93635C083133400793635CDC
:1033600019002623A9430D913C21E35C8B46334091
:1033700008932E23E35C5946AB430E932723E35C6B
:1033800033401943039121212F238B46E35CAB4348
:103390000F93635C093933400B4359466354099BCF
:1033A0001E390B43514663545C2304995B420B4323
:1033B0006146635404230A991943215405998A38B4
:1033C00008432321605424200B991943A1540699E2
:1033D0009B3A0A4322540C9A08301A43225478220A
:1033E00007985242024325202D2122540D9A089815
:1033F0001A4362547C2252420243073962542E22FD
:103400000E990B430399A354073AA15403210F9B30
:1034100008320B43A354A34B073118789A4603F0A4
:10342000F3FD03003033D9B22A20FDF7B1F853463B
:103430000A21187803F0E8FD3031C9B22F20FDF7DA
:10344000A7F83122A35C34212B40A3540832A35C9B
:103450003720B343A354073AA35C2B40A35408324C
:10346000A35CB343A354073AA35C2B40A354083294
:10347000A35CB343A3544023625C5B422A401343E2
:103480003C226354A35CB343A354073AA35C2B4090
:10349000A3540832A35CB343A354073AA35C2B4064
:1034A000A3540832A35CB343A354073AA35C2B4054
:1034B000A354635DB3437C4E63557179303D090974
:1034C0003031FDF765F871793C2029403031FDF746
:1034D0005FF841210723625C49201A4062541F2291
:1034E000215C914321540738215C19402154083054
:1034F000215C914321540738215C19402154083044
:10350000215C9143215444218C46615C333819403D
:103510000143604621540830215C9143215407380F
:10352000215C194021540830215C91432154073813
:10353000215C194021540830215C914321544721DA
:10354000605C034063540831635C442093436354DC
:10355000317909093031FDF71BF8317949202940CB
:103560003031FDF715F8514B1B78002B00D12CE1C1
:10357000484B05211B78D800C01803F019FD030043
:103580002033DBB21D1C632B00D96325EDB20A2169
:10359000280003F039FD01003031C9B25020FCF79A
:1035A000F7FF0A21280003F02FFD3031C9B2552062
:1035B000FCF7EEFF59210F23625C10201A40625481
:1035C0000831625C9A4362540739625C1A40625463
:1035D0000831625C9A4362540739625C1A40625453
:1035E0000831625C9A4362540739625C1A40625443
:1035F0000831625C9A4362540739625C1A40625433
:103600000831625C9A4362540739625C1A40625422
:103610000831625C9A4362540739625C1A40024383
:1036200062540831625C9A434B46625418785D39A3
:1036300003F0EAFC01003031C9B25C20FCF7A8FFBE
:103640004B460A21187803F0DFFC3031C9B2612003
:10365000FCF79EFF69231F22E254653B4B32A354C3
:103660000132A3540132A3540132A3540132A354B2
:103670000132A3540023424613700D4B1B784C2B90
:1036800000D098E516E0C046348500106C0200209A
:103690009301002035050020940100204C050020F6
:1036A000C4040020A00400203C0500209804002051
:1036B0009304002021220326A35C00253340A35459
:1036C0000132A35C39213340A3540132A35C342777
:1036D0003340A3540132A35C37203340A35401325A
:1036E000A35C3340A3540132A35C3340A3540132A2
:1036F000A35C3340A3542923E5540133E55401333B
:10370000E5540133E5540133E5540133E554013305
:10371000E5540233E554625C9A460E339A43625490
:1037200032220131A5549146625C9A43625433229D
:103730000131A5549046625CE5559A4362540131CB
:10374000625C9A43625435220131A554625C9A430B
:103750006254073965540831625C25549A436254B7
:10376000E25C34399A43E254524B18789B4603F09A
:103770004BFC03003033D9B22420FCF709FF5B4631
:103780000A21187803F040FC3031C9B22920FCF737
:10379000FFFE5346E5544B463720E6543522434658
:1037A00036212554E555444DE654A65466546978AF
:1037B000063809093031FCF7EBFE0F216B78362013
:1037C00019403031FCF7E4FEF5E43C4B0A2118784F
:1037D00003F01AFC01003031C9B25020FCF7D8FECA
:1037E000364B0A21187803F00FFC3031C9B255204E
:1037F000FCF7CEFE5922A35C10212B40A3540832C3
:10380000A35CAB43A354073AA35C2B40A3540832F8
:10381000A35CAB43A354073AA35C2B40A3540832E8
:10382000A35CAB43A354073AA35C2B40A3540832D8
:10383000A35CAB43A354073AA35C2B40A3540832C8
:10384000A35CAB43A354073AA35C2B40A3540832B8
:10385000A35CAB43A354073AA35C2B400B43A35494
:103860000832A35C0A21AB43A3544B46187803F0FB
:10387000CBFB01003031C9B25C20FCF789FE4B461E
:103880000A21187803F0C0FB3031C9B26120FCF77F
:103890007FFE062369226A21A354603A62540131F3
:1038A0006754013167540131675401316254663203
:1038B000A354DFE6450500203C0500203505002027
:1038C00070B505000C0083070BD1642103F09CFB4D
:1038D00089B2002905D00C2C13D82D4BA4001B59FC
:1038E0009F46C8212800490003F08EFB89B20029B9
:1038F000F1D00C2C05D8274BA4001B599F46264B12
:10390000987D70BD244BD87AFBE7234B987AF8E773
:10391000214B587AF5E7204B187AF2E71E4BD879FD
:10392000EFE71D4B9879ECE71B4B5879E9E71A4B09
:103930001879E6E7184BD878E3E7174B9878E0E773
:10394000154B5878DDE7144B1878DAE7124B187CE2
:10395000D7E7114B187BD4E70F4BD87DD1E70E4B3F
:10396000587DCEE70C4B987BCBE70B4BD87BC8E759
:10397000094B587BC5E7084B187DC2E7064B587CBE
:10398000BFE7054B987CBCE7034BD87CB9E7C04642
:1039900064830010988300109801002010B5374B05
:1039A0001A78374B1B78012B38D0012A11D0354BB0
:1039B0001B78012B1AD0344B1B78012B04D1334ACE
:1039C000137859424B411370314B1B78012B1AD09D
:1039D00010BD01283BD02F4A1378013BDBB2FF2BEF
:1039E0003ED01370274B1B78012BE4D12A4B19785A
:1039F0004A424A411A70294A537800291AD10321B0
:103A00000B435370D7E7264A1378012830D0013B87
:103A1000DBB2002B00D107231370D9E721490B78C3
:103A200001280BD0013BDBB20B70FF2B1BD0012A0E
:103A3000BDD1D0E703218B435370BCE70133DBB228
:103A40000B70182B01D100230B70012AAFD1114A42
:103A500013780133DBB23C2BC3D100231370A6E7EC
:103A60003B231370BEE7E83B0B70012A9FD1B2E7FE
:103A70000133DBB2082BCFD11070A9E782040020FC
:103A80007F04002084040020860400208704002096
:103A90007D0400208304002085040020C40400204D
:103AA000830100208004002010B53D493D4A09787B
:103AB000137801292CD0012B18D03B4B1B78012BFC
:103AC00000D010BD394A117848424841107038483A
:103AD000027900292FD1374909780C2920D853D0F1
:103AE00002239A4301231A430271EAE7324B1A7800
:103AF000324B1B78012B22D0012ADED101283BD08A
:103B00002F4A1378013BDBB2FF2B2BD01370D4E785
:103B1000012820D0013BDBB2FF2B09D01370CAE78C
:103B20009A430223274C0C391A4321700271C8E7CB
:103B300002231370C1E702339A430271C1E722499D
:103B40000B78012811D0013BDBB2FF2B21D00B7089
:103B5000012AB2D1D4E70133DBB2032BDED100233B
:103B60001370AAE73B231370A7E70133DBB23C2BAA
:103B700012D00B70012AA0D1114A13780133DBB2A5
:103B80003C2BECD0137098E79A4302231A4302713E
:103B900097E7C43B0B70DBE700230B70EAE7C046F6
:103BA00073040020810100206C0400206D040020BB
:103BB000C404002065040020740400207104002067
:103BC00075040020450500207204002070B56D4B7F
:103BD0001B78012B51D06C4B1B78012B3FD06B4BCA
:103BE0001A786B4B19786B4B1B78012B27D0012A65
:103BF00015D0012900D070BD674B197001287CD009
:103C0000664C2378013BDBB22370002BF3D1644B6D
:103C10001978644B1888FFF753FE2070EBE75E4C71
:103C2000227001284DD05E4A1378013BDBB2002B95
:103C30004DD10C2313700129DDD12170E0E7564CE2
:103C4000594D23702B7801284DD0013BDBB22B70EE
:103C5000FF2B65D0012AE6D00129CCD1D0E74E4A0E
:103C60001370524A1378012879D0013BDBB2FF2B45
:103C700054D013704E4A1370B1E7474A4D49137040
:103C80004D4A0978137801285DD0013BDBB2FF2B48
:103C900022D01370002923D048490A790C2B48D828
:103CA00049D0474C237002239A4301231A430A71D7
:103CB00091E700232B70434D2B7801332B70012AA1
:103CC00018D1374A13780133DBB20D2B4ED0137065
:103CD000012900D08FE78FE71723137000294CD1FB
:103CE000374A137077E70133DBB22B70642BE0D0D7
:103CF000012AE6D0012900D07DE7294B1978274D0C
:103D0000284B2C7818880134E4B22C70FFF7D8FDCA
:103D1000844200D86FE700232B706CE73B23A8E7B1
:103D20009C3B2B70274D2B78013B2B70012A93D1A4
:103D300079E70C3BDBB2224C237001239A43022328
:103D40001A430A7147E70133DBB2182BA1D10023D4
:103D500013700029C4D0194900230A79A1E701335F
:103D6000DBB23C2B85D10023137083E70123137052
:103D7000012900D03FE72170C1E710490B230A79E0
:103D8000D9E7C04668040020690400206A040020C6
:103D9000670400206B0400208C0400204D050020E7
:103DA000C004002046050020A00400206604002076
:103DB000430500206D04002065040020C404002099
:103DC00045050020B0010020F0B54546DE465746C7
:103DD0004E46E0B5DF4B89B01B78DF4D012B00D19B
:103DE000BDE0DE4B1B78012B00D1AFE0DC4B1B7834
:103DF000012B00D19BE0DB4F3B78012B00D17AE017
:103E0000D94B99461B78012B39D0D84BFF229A46C3
:103E10005146D74B1B78CA54D64B98461B78012B7A
:103E200000D1A5E0D44C2378012B6CD00023D34AD9
:103E300023701370D24A3B701370D24A2B701370E8
:103E4000D14A1370D14A1370D14A1370424613708D
:103E5000D04A1370D04A1370D04A1370D04A1370EE
:103E6000BC4A1370BD4A1370BD4A13704A461370A2
:103E700009B03CBC90469946A246AB46F0BD2B78B3
:103E80009846012BC1D1C74C2078009401F048FA24
:103E9000C54B24789A461B881E00C44B9B461B7852
:103EA0005A1E012A00D8E0E25800013401332418D8
:103EB0005800C018052103F07BF8B4462418644468
:103EC000B00824186421300003F09EF8C82180B2A5
:103ED000241A4900300003F097F880B22018072117
:103EE00003F066F8FF231940062900D9E8E1B04B3A
:103EF00089005B589F462B789846012B00D165E1DD
:103F0000994B994681E7AB4B1B78022B00D08DE78C
:103F1000534630215B780D201940FCF739FB53469E
:103F200046215B7812201940FCF732FB7EE72F78A0
:103F3000012F00D18AE18B4F3B78012BE0D08A4BD7
:103F400099461B78012B00D05FE798E72B78012B6F
:103F500000D04BE7984B187801F08EF946E72B78A4
:103F6000012B00D03DE7954B187801F0A1F938E717
:103F70000424934B187800900C570A21019403F005
:103F800043F80300303323405BB2D8B2010030392C
:103F9000C9B2092900D8D9E00200413A052A00D95E
:103FA00045E23738C0B2C200121A864B864C985C84
:103FB0007F23617AC601194031436172617C4010F0
:103FC0008C46012166468E43304340B207907D48BF
:103FD00084466244507884466646A07AF6011840CA
:103FE00030436646A072A07C76108843304340B2CE
:103FF0000690907884466646E07AF6011840304391
:104000006646E072E07C76108843304340B205900B
:10401000D07884466646207BF601184030436646D9
:104020002073207D76108843304340B2049010798D
:1040300084466646607BF6011840304366466073EE
:10404000607D76108843304340B2039050798446B7
:104050006646A07BF601184030436646A073A07DFB
:1040600076108843304340B292798346E07B034028
:10407000D0010343E373E37D52108B4313435BB2E0
:1040800009310098029302F0BFFF0B00019A303310
:104090001340DBB21A00303AD2B2092A00D9CEE07E
:1040A000D3009A1A474B079E985C0F2301011E40CC
:1040B00031436174617E0011994301436176414946
:1040C000069E8C46624450781E4001013143A17423
:1040D000A17E001199430143059E90781E40A17670
:1040E00001013143E174E17E001199430143049ED3
:1040F000D0781E40E176010131432175217F001106
:1041000099430143039E10791E40217701013143F9
:104110005E466175617F0011994301435079617773
:104120001E4001013143A175A17F00119943014354
:10413000A1779179029A08011A400243E275E27F61
:1041400009119A4313000B43E3776BE6CA00521A36
:104150002BE7C046680400208C040020690400207E
:104160006B0400206A0400206704002088010020FE
:104170009704002082040020730400204E050020D4
:10418000910400208904002086040020840400207B
:104190007F04002071040020740400206C040020BF
:1041A000600400204D05002046050020C0040020CA
:1041B000CC830010810100206604002065040020EB
:1041C0008304002038850010C4040020DD4B9B468A
:1041D000187801F0DDF8DC4BDC4A9A461B88009227
:1041E00099465B461B7814785A1E012A00D843E191
:1041F00058000134013324185800C018052102F07A
:10420000D7FE4B4624184C4498082418642148468D
:1042100002F0FAFEC82180B2241A4900484602F092
:10422000F3FE80B22018072102F0C2FEFF231940DE
:10423000062900D9BFE0C64B89005B589F462F2B4B
:1042400000D9A7E1C3499A008A589746C24B18780B
:1042500001F04AF8BC4BBD4A9A461B88009298462A
:10426000B84B14789B461B785A1E012A00D811E1DE
:1042700058000134013324185800C018052102F0F9
:1042800097FE434624184444980824186421404665
:1042900002F0BAFEC82180B2241A4900404602F05A
:1042A000B3FE80B22018072102F082FEFF231940DE
:1042B000062942D8A94B89005B589F4605230193E4
:1042C000019801F049F853461B88009A9A465B46CC
:1042D0001B7814785A1E012A00D8D4E05800013403
:1042E000013324185800C018052102F061FE53461E
:1042F00024185444980824186421504602F084FE7F
:10430000C82180B2241A4900504602F07DFE80B2D6
:104310002018072102F04CFEFF231940062900D97E
:104320004AE18F4B89005B589F46002398464046E0
:10433000FCF7C2F869E505239946484601F00CF8F8
:1043400053461C885B46009A1B7810785A1E012A37
:1043500000D885E0013080465A0001335800C0186B
:104360000521904402F024FE404400198046A30831
:1043700064212000984402F047FE4346C82180B2E1
:104380001B1A49002000984602F03EFE80B24044CD
:10439000072102F00DFEFF231940062900D909E18B
:1043A000704B89005B589F4600273800FCF784F863
:1043B00021E505231E00300000F0CEFF53461C8887
:1043C0005B46009A1B7810785A1E012A43D90130A7
:1043D00081465A0001335800C0180521914402F06B
:1043E000E7FD484400198146A30864212000994450
:1043F00002F00AFE4B46C82180B21B1A4900200079
:10440000994602F001FE80B24844072102F0D0FD37
:10441000FF231940062900D9D1E0534B89005B588E
:104420009F46002398464046FCF746F8E8E42E2BCA
:1044300000D1B2E000DDB2E0202B00D1C2E0BD220D
:104440002D2B00D1B1E5002B00D1BBE0C200121A28
:10445000ABE5A82226E60C33013CDBB2A4B2B6E7FA
:104460000C33013CDBB2A4B274E73200013A0C33E6
:1044700092B2DBB2160017E54A46013A0C3392B20B
:10448000DBB29146B4E65246013A0C3392B2DBB24B
:10449000924623E74246013A0C3392B2DBB2904691
:1044A000E6E6B622FEE5BD22FCE5CB22FAE50627CC
:1044B0007BE7062398463AE70723019300E70723A3
:1044C00099463AE706239846ADE707231E0072E7B0
:1044D000032398462BE70223984628E704239846AF
:1044E000A1E7052761E701231E0064E706231E00FC
:1044F00061E704231E005EE703231E005BE702233F
:104500001E0058E706230193DAE60623994614E7CE
:104510000323984687E70223984684E70423019300
:10452000CEE603230193CBE602230193C8E60123E1
:104530000193C5E60523984675E7032735E702276B
:1045400033E7C046C0040020460500204D0500208A
:10455000E883001004840010A0040020C48400102C
:10456000E0840010FC8400101885001004271CE76C
:1045700004239846DBE605239846D8E604239946AB
:10458000DBE603239946D8E602239946D5E60123C4
:104590009946D2E6DA00D21A84E5B62205E53A2B2E
:1045A00012D07022482B00D1FFE45B322F2B00D0B9
:1045B0004CE7FAE4FF27F8E6FF239846B7E6FF2327
:1045C000984630E7A822F0E49322EEE4F0B5A04C40
:1045D000A04D23782A780133DBB283B02370012AFF
:1045E00006D1D02280211206C901916100222A70D1
:1045F0003C2B00D19FE098490B78012B00D16EE055
:10460000964C974B1B78002B19D023780133DBB2E3
:104610002370782B04D1934B1B78002B00D1C3E07F
:10462000914A1378012B0FD0904B1B78012B28D087
:104630008F4B1B78012B3ED0012003B0F0BD8A4A7E
:1046400023701378012BEFD18A490C78002C00D10C
:1046500090E0894D013C2878E4B20130C0B20C7082
:104660002870002C00D1E1E0032102F0CDFCC9B29A
:104670000029D9D1814B29701C707C4B1B78012BF0
:10468000D6D17C4B7C4D1C78287801340130E4B2C3
:10469000C0B21C7028703C2C00D18CE0032102F0C9
:1046A000B3FCC9B20029C3D1744B29701C70704B84
:1046B0001B78012BC0D1724A1278002ABCD17149F3
:1046C0000A78002AB8D0052A06D0D0208024000617
:1046D000E40144616C480370013A0A70ACE76B482E
:1046E00002780132D2B202700A2A00D088E700258F
:1046F000674A5A4C1570674A0D701570664A2570E6
:104700001570664A1570664A1570664A1370FFF791
:104710005BFB544B644F1D703B78644E002B63D0A1
:10472000634D3378002B03D02B78012B00D186E02A
:1047300000232B7065E75D4E3378002B05D05D4B71
:10474000DA785D4B1B789A4264D043490B78002B92
:104750000AD15A4A1278002A06D1594A1278002AF8
:1047600002D101204F4A1070002205202270454AD4
:10477000107042E7534E3478002C27D11470524AFF
:1047800080201370D022C001120650613E4A13707F
:10479000364B1C78012C00D04AE7374D0C70287836
:1047A0000130C0B2287079E7012248492370484B94
:1047B0000A701A7034E70021424A197013780133E5
:1047C000DBB23C2B38D01370002467E72A4D2878E1
:1047D0000130C0B228703B2300220B70274B013CF4
:1047E00034701A703B243FE73378314D002B9FD053
:1047F0002B78012B9CD13049364B0978364A1B78EF
:10480000127801200091002100F008FE3B78002B77
:104810008ED086E700F0EEFE002896D0012380229D
:104820002B70D023D2011B065A618EE7254E3478B7
:10483000002C00D118E7CEE7117000242EE71E4BA4
:104840001A78244B1978244B187800F079FE6FE71A
:1048500063040020880400206404002090040020E9
:1048600094040020970400206F04002070040020AE
:1048700061040020750400207604002077040020E5
:1048800043050020800100208B0400204E050020FD
:10489000620400207E0400208104002079040020AE
:1048A000780400209A04002087040020850400205A
:1048B0007D0400203C050020830100209604002098
:1048C00082010020720400206E0400209204002067
:1048D000950400208004002083040020F0B54646A3
:1048E000D6464F46C0B53A4E84B03378002B0AD036
:1048F000FA21384A8900138801339BB28B4201D1D7
:1049000000F0E5FB1380344B1B78002B09D0FA2113
:10491000324A4900138801339BB28B4200D160E3D5
:1049200013802F4B9A461B78012B00D164E32D4D49
:104930002A78002A09D096202B4980000B88013361
:104940009BB2834200D138E30B80284A284B117870
:1049500098461B78012903D141460133DBB20B7025
:10496000822B00D15AE3234CD0210906224A486801
:1049700013880127400700D548E201331380D02176
:1049800009061E4A486813880127800300D500E203
:1049900001331380D0210906194B4A6898461B88B9
:1049A000120400D556E2424601331380154F3B787E
:1049B0000133DBB2072B00D90023134D31783B7054
:1049C0002A78002900D1DAE1012A00D1D6E31DE0DE
:1049D0007A0400205E040020820100205C04002094
:1049E0008B0400209704002056040020950400202A
:1049F00096040020C4040020580400205A0400201B
:104A000054040020340500207B040020D0228020A4
:104A1000120680015061D02080260006F600E25C7C
:104A20008661802636018661D70700D54661D02091
:104A300080260006F6004661866180263601866182
:104A4000970700D54661D02080260006F600466113
:104A50008661802636018661570700D54661D020E1
:104A600080260006F6004661866180263601866152
:104A7000170700D54661D02080260006F600466163
:104A80008661802636018661D70600D54661D02032
:104A900080260006F6004661866180263601866122
:104AA000970600D54661D02080260006F6004661B4
:104AB0008661802636018661570600D54661D02082
:104AC00080260006F60046618661802636018661F2
:104AD000D20900D04661D02080260006F60046614B
:104AE000E218127A8661802636018661D70700D5E2
:104AF0004661D02080260006F60046618661802649
:104B000036018661970700D54661D02080260006D1
:104B1000F60046618661802636018661570700D51A
:104B20004661D02080260006F60046618661802618
:104B300036018661170700D54661D0208026000621
:104B4000F60046618661802636018661D70600D56B
:104B50004661D02080260006F600466186618026E8
:104B600036018661970600D54661D0208026000672
:104B7000F60046618661802636018661570600D5BB
:104B80004661D02080260006F600466186618026B8
:104B900036018661D20900D04661D0208026000609
:104BA000F6004661E218127C866180263601866135
:104BB000D70700D54661D02080260006F600466162
:104BC0008661802636018661970700D54661D02030
:104BD00080260006F60046618661802636018661E1
:104BE000570700D54661D02080260006F6004661B2
:104BF0008661802636018661170700D54661D02080
:104C000080260006F60046618661802636018661B0
:104C1000D70600D54661D02080260006F600466102
:104C20008661802636018661970600D54661D020D0
:104C300080260006F6004661866180263601866180
:104C4000570600D54661D02080260006F600466152
:104C50008661802636018661D20900D04661D02067
:104C600080260006F6004661E418227E8024240196
:104C700086618461D60700D54461D0208024000677
:104C8000E40044618461802424018461960700D596
:104C90004461D02080240006E400446184618024C3
:104CA00024018461560700D54461D0208024000689
:104CB000E40044618461802424018461160700D5E6
:104CC0004461D02080240006E40044618461802493
:104CD00024018461D60600D54461D02080240006DA
:104CE000E40044618461802424018461960600D537
:104CF0004461D02080240006E40044618461802463
:104D000024018461560600D54461D0208024000629
:104D1000E40044618461802424018461D20900D0CC
:104D20004461D02280201206C000506180204001E2
:104D300050619061D80700D4E1E0802040025061CA
:104D40009A0700D4D5E0D02280201206C00250611C
:104D50005B0700D4B6E0D02380221B06D2035A6141
:104D6000002900D0B6E0D02380221B0692019A6170
:104D7000012004B01CBC90469946A246F0BD012A11
:104D800000D043E6E048297001F064F831783B78C0
:104D90003CE618003338F82800D9F4E000231380EB
:104DA0000022DA4B1A702B78002B0CD1D84B1A78D2
:104DB000514251411970E378002A00D12CE20222BD
:104DC000BB431343E370D349D34A097813780129CD
:104DD00000D1E6E1012B00D10EE2D04B1B78012B74
:104DE00000D1FDE10120FEF7D9FD0120FEF75CFEB8
:104DF0000120FEF7EBFECA4B1B78012B00D0C9E562
:104E0000C84A137859424B411370C3E51800333830
:104E1000F82800D99DE000231380C34B1B78012B99
:104E200000D1BBE1C14B1B78012B00D1FAE1C04B93
:104E30001F70B94B1B78012B06D1D022802112069E
:104E4000C901516152461370FEF7BEFF2B78013342
:104E50002B7094E595205A1E92B24000824252D89F
:104E60000022AA4B1A702B78002B0AD132785342B9
:104E700053413370E379002A00D0C9E10322134380
:104E8000E371A449A44A09781378012900D180E18B
:104E9000012B00D19CE1A14B1B78012B00D18BE1B0
:104EA0009F4B1B78012B00D180E10020FEF776FD9F
:104EB0000020FEF7F9FD0020FEF788FE00234246A1
:104EC000138073E5D02380221B06D2039A61002948
:104ED00000D148E701232B7000F0B4FE8A4B9622E4
:104EE000029300230193934B0093002300F0AEFE46
:104EF0003EE7D02280201206C002906128E7802081
:104F0000400290611CE796225200934200D8F3E0E1
:104F10002B78002B00D1EFE07F4B1B78012B00D1C9
:104F20008BE100270122844B1F70814B1F70834B44
:104F30001F707D4B1F707D4B1F70814B1F70814B0D
:104F40001A70814B1F70FEF73FFF43462F701F8082
:104F50002CE596204000834200D80BE12B78002BF3
:104F600000D007E1754813806B4B07701B786E48C3
:104F70002F700770012B00D001E58022D2014A6119
:104F800052461370FBE496204000834200D8B7E0FD
:104F90002B78002B00D0B3E0694813805E4B07707C
:104FA0001B7862482F700770012B00D0F2E480223A
:104FB000D2014A6152461370ECE400230B8063492E
:104FC0008B5CDB438B54584B1B78012B00D11BE1CE
:104FD000564B1B78012B00D135E10122544B1A703E
:104FE000B3E4002313800122594B1A70594B9A469F
:104FF0001B78012B00D09AE4574A13780133DBB2B7
:105000001370502B00D092E4D02380211B06C901DD
:105010009961002313705246137088E44F4B9946F0
:105020001B786F2B4AD903234D4C617E1940617662
:1050300021218C466746605C1E318843E055A07E86
:105040001840A076222084466746205C8843E055BD
:10505000E07E1840E076232084466746205C884343
:10506000E055207F18402077242084466746205C46
:105070008843E055607F1840607725208446674666
:10508000205C8843E055A07F1840A0772620844606
:105090006746205C8843E055E07F03402720E377A4
:1050A000235C8B432354002313704A461370012260
:1050B000244B1A7000234246137055E4FEF768F83B
:1050C0004B464A461B78264C01331370F2E7002307
:1050D000E0211380234AC90113680B4022490B6069
:1050E0000421224B1960FC3113680B42FCD052683A
:1050F0001F4B1A80FFF707FC00234246138055E43C
:105100000023138046E4C046A80400204E0500207A
:1051100098040020890400208401002091040020CC
:105120006004002061040020810400207904002034
:10513000620400205D030010640400207E0400204F
:10514000780400209A0400209004002088010020A8
:105150007C0400208B0400208A040020930400209B
:10516000C404002000C0044000D0044000E004401B
:105170003805002000231380FFF701FC344800F0BD
:1051800069FED02380221B0692015A6131783B7858
:1051900041E459424B41DBB2137079E62D4A13705A
:1051A00047E659424B41DBB2137013E62A4A1378A3
:1051B00059424B41137078E6284B1A7851425141BD
:1051C00019702378002A34D103221343237067E631
:1051D000D02280211206C9015161524613705AE64D
:1051E0001E4B1A785142514119702378002A1CD164
:1051F000032213432370F5E5D02280211206C90152
:10520000516152461370E8E5124A1370FFF79DFB97
:1052100003229343E37134E60222934301221343B2
:10522000E370D0E50E4A137003E603229343237024
:10523000D8E503229343237032E68022D2014A61EB
:10524000524613706DE6064A1370FFF77EFBC046A8
:10525000A80400207E0400206104002094040020A3
:10526000780400200309020098001B180F205B003F
:1052700010401818C0B27047F0B5002685B003ADD5
:105280000A2107002E8001F093FE0A210401380054
:1052900001F08EFE6418AC70032300962A0068218A
:1052A000024802F023FD05B0F0BDC0466C020020AC
:1052B000022370B584B003AD0A212B70060001F003
:1052C00077FE0A210401300001F072FE0023641809
:1052D0006C702A00009368210233024802F006FD38
:1052E00004B070BD6C020020062370B584B003AD1D
:1052F0000A212B70060001F05BFE0A210401300038
:1053000001F056FE002364186C702A000093682197
:105310000233024802F0EAFC04B070BD6C020020C7
:10532000042370B584B003AD0A212B70060001F090
:105330003FFE0A210401300001F03AFE0023641808
:105340006C702A00009368210233024802F0CEFC00
:1053500004B070BD6C020020032370B584B003ADAF
:105360000A212B70060001F023FE0A2104013000FF
:1053700001F01EFE002364186C702A00009368215F
:105380000233024802F0B2FC04B070BD6C0200208F
:10539000052370B584B003AD0A212B70060001F01F
:1053A00007FE0A210401300001F002FE0023641808
:1053B0006C702A00009368210233024802F096FCC8
:1053C00004B070BD6C0200200F22F0B5012300274D
:1053D000040087B0104E6A4404AD17706821009332
:1053E000300002F083FC00972A0007236821300078
:1053F00002F0D4FCE8786F78AE7829796A79AB79D5
:10540000E07020002D7867702570A67021716271A0
:10541000A37107B0F0BDC0466C020020F0B5CE46C7
:1054200047460E0080B587B01C000EAB1B78804647
:105430000A2130001500994601F0BAFD0A21070142
:10544000300001F0B5FD28007F180A2101F0B0FD01
:105450000A210601280001F0ABFD200076180A2180
:1054600001F0A6FD0A210501200001F0A1FD48463A
:105470006D180A2101F09CFD0A210401484601F043
:1054800097FD42466418FFB2F6B2EDB2E3B2022ACB
:105490004DD047D9032A3CD0042A09D18022524258
:1054A0001343154316431743DBB2EDB2F6B2FFB216
:1054B00004AA967007210026D570204D11705770F0
:1054C0001371613100960523280002F00FFC0E23B2
:1054D00003AC23800D3B009322006821280002F0DA
:1054E00005FC0D2200966A4401236821280002F081
:1054F00055FC0522637868211343637022000096EF
:105500000223280002F0F2FB07B00CBC904699463B
:10551000F0BD80225242134315431643DBB2EDB275
:10552000F6B2C5E7012AC3D180221343C0E7802227
:10553000524213431543DBB2EDB2B9E76C020020CF
:10554000F0B5C6460B2300B584B003AC0F000A21AA
:1055500016002370804601F02BFD0A21050140460C
:1055600001F026FD38006D180A21657001F020FD5C
:105570000A210501380001F01BFD30006D180A21D9
:10558000A57001F015FD0A210501300001F010FDA4
:105590006D188021002649420D43E570144D22000C
:1055A00000960423E831280002F0A0FB0E2302AC91
:1055B00023800D3B009322006821280002F096FB17
:1055C000092200966A4401236821280002F0E6FBC4
:1055D0000622637868211343637022000096022339
:1055E000280002F083FB04B004BC9046F0BDC04626
:1055F0006C02002070B50F23012684B0194D03AC56
:10560000238022000E3B68210096280002F06EFBEA
:1056100000230D2200936A4401336821280002F020
:10562000BDFB637800201E420FD102221A420AD02D
:105630009343637000232200009368210233280003
:1056400002F054FB012004B070BDB343637022002C
:10565000009002236821280002F048FB63780120B3
:10566000E3E7C0466C020020094A830094464022CA
:10567000634410B51C68C0006240C02414408022FE
:10568000520113431C60034B9C466044416010BDB3
:1056900004C00140004001400B4B80009C46604428
:1056A00000290DD00C210823002A00D00B0002682D
:1056B00053400C221A4080235B011843026070475C
:1056C00004210023F0E7C04604C00140084B8000DD
:1056D0009C466044002905D1C0239B011843402308
:1056E0000360704780239B01184340230360F8E761
:1056F00004C001400123D0228340120693629361CB
:10570000094A83009446402263441968C0004A4015
:10571000C02111408022520113431960034B9C4663
:10572000052360444360704704C0014000400140CD
:10573000F8B5EFF3108C72B60D4F3B68002BFCD020
:10574000BFF35F8FCB08C018057807242B000C40EF
:10575000E3400126334008D1A64035430570BFF32E
:105760005F8F3B608CF31088F8BD100001F054F897
:105770002C0100D00021044B044ABFF35F8F02C309
:105780009342FAD17047C046000100D0800100D09A
:10579000044A1078431CDBB2172B00D91023137076
:1057A0007047C046B1010020024B18688007C00F47
:1057B0007047C04600C00640F8B5040006200D0042
:1057C00001F0BEF903000020002B4CD02B4B2C49DC
:1057D000E3185A1E93418022120494465B42294AE0
:1057E0009B0563441360284A136018008A6890433D
:1057F000FBD1224B8021E3185A425341234A5B00DC
:1058000049000620995201F09BF92900C00001F0DF
:10581000FBFBC30906D01E4A934225D91D4F002326
:105820001D4A01E040270122260080256262A36212
:1058300000232C36AD0135432B60062001F080F9A2
:105840003900800001F0E0FB6023E26A53406E22E1
:105850001A4080235B0133431A60104B23631023EB
:105860002B600D3BA364F8BD7F221040013040083F
:105870009F011A003F180300D6E7C0460080FCBF16
:1058800000C0004000E0004000F000405005002053
:10589000FEFF0000C0FF3F00FFFF0000010300000B
:1058A00083680B4810B584466144624409011201C3
:1058B0009A18591854684B6801209C4201D802D0AC
:1058C0000020C0B210BD12680B689A42F9D8F7E701
:1058D000FFFFFF0F10B508000B690C009847002868
:1058E00003D1E0600021002010BD20686168FBE763
:1058F000F8B557464E464546DE46E0B51F000CABB0
:105900001D780DAB1B7881469A46036816009846B1
:10591000002D3BD1987B002832D0424645464400BA
:1059200012682418033C121951780300A973002946
:1059300000D1E9730021050091705170117029E0C8
:10594000D31814199D702278002A00D05A705B4633
:10595000237043465D734B463200187D3B0000F0D8
:1059600071FB041E07D05346002B04D14B4629007F
:10597000186800F039FD0E9B002B44D028001C70E5
:105980003CBC90469946A246AB46F8BD2B006C0045
:105990006419033C1D4A94464A46926863449446FF
:1059A0001B010A9A63449A600B9A1E605F60DA607A
:1059B000434600221B681B199A705A701A7043469E
:1059C0005B7B9B46002BC4D043462A00986859460F
:1059D0005B6898475B4642465B005B44033B12684A
:1059E0000028ADD0D31814195A46A2701A78002A8C
:1059F00007D11D705A46434628005A73AB45BFD1A4
:105A0000A9E76270F5E72800BAE7C046FFFFFF0F7D
:105A1000F0B5DE46454657464E46724B8200E0B52D
:105A2000D55800238DB00B909B4627E0069A079B24
:105A30001100194303D02B69002B00D093E02B6891
:105A4000DA7B002A07D051008A1819688C4649462B
:105A50006244033A51704A46DA73EA684B46944608
:105A6000013B63441A7801321A705B462B616B6804
:105A7000BFF35F8F5A461A6084F3108800F090FAE3
:105A80006A68EFF3108472B61368002BFCD0BFF382
:105A90005F8F2B689C465B7B9946002B5BD0AA6886
:105AA000514B90464B441B01984443461A685B682F
:105AB00016001F00361A8F41002F6EDD0B9800F084
:105AC000C1FA0022002300270026089209936B6880
:105AD000BFF35F8F5A461A6084F31088002E76D089
